:020000040800F2
:10000000C00C00209D01000833350008A72000081F
:10001000313500087D0B00086F3700080000000034
:10002000000000000000000000000000573500083C
:10003000090C00080000000055350008593500087B
:10004000B7010008B7010008B7010008B7010008B0
:10005000B7010008B7010008B7010008B7010008A0
:10006000B7010008B7010008B7010008810B0008BC
:10007000B7010008B7010008B7010008B701000880
:10008000B7010008B7010008B7010008B701000870
:10009000B7010008B7010008B7010008B701000860
:1000A000B7010008B7010008B7010008B701000850
:1000B00039360008B7010008B7010008A920000878
:1000C000B7010008B7010008B7010008B701000830
:1000D000B7010008B7010008B7010008B701000820
:1000E000B7010008B7010008B7010008B701000810
:1000F000B7010008B7010008B7010008B701000800
:10010000B7010008B7010008B7010008B7010008EF
:10011000B7010008B7010008B7010008B7010008DF
:10012000B7010008B7010008B7010008B7010008CF
:10013000B7010008B7010008B7010008B7010008BF
:10014000B7010008B7010008B7010008B7010008AF
:10015000B7010008B7010008B7010008B70100089F
:10016000B7010008B7010008B7010008B70100088F
:10017000B7010008B7010008B7010008000000003F
:10018000B7010008B7010008DFF80CD000F03AFB17
:100190000048004729420008C00C0020064880475C
:1001A00006480047FEE7FEE7FEE7FEE7FEE7FEE75C
:1001B000FEE7FEE7FEE7FEE7E535000889010008F7
:1001C0002DE9F05F0546002092469B46884606468C
:1001D000814640241BE0284641464746224600F01F
:1001E00009FA53465A46C01A914110D3114618468F
:1001F000224600F0F0F92D1A67EB01084F4622461F
:100200000120002100F0E7F917EB00094E41201E04
:10021000A4F10104DFDC484631462A464346BDE8E6
:10022000F09FD2B201E000F8012B491EFBD27047CB
:100230000022F6E710B513460A4604461946FFF7B2
:10024000F0FF204610BD2DE9FE4F804681EA0300F5
:10025000C00F0C46009021F0004123F00045B8EBA0
:100260000200A94105D24046214690461C460B4655
:10027000024623F00040104347D0270DC7F30A0081
:10028000C3F30A510290401A019040286BDAC3F37D
:10029000130040F4801B0098924620B10023D2EB5B
:1002A000030A63EB0B0B01985946C0F1400250461C
:1002B00000F091F906460D4650465946019A00F065
:1002C000A9F910EB08006141002487EA115284EA81
:1002D000E7731A4340D0009A62B3019A012A4FEAA9
:1002E000075215DC001B61EB02014FF0004202EAED
:1002F0000752CDE90042001C41F5801132462B46E1
:1003000000F0E0F903B0BDE8F08F40462146F9E780
:10031000001B61EB0201001C41F5801300185B41DA
:100320002018A2F5001747EB030140EAD570B61973
:100330006D4111E06D084FEA360645EAC0754FEA97
:100340000752001B61EB0201001C41F580114908B6
:100350004FEA30000019514132462B4603B0BDE848
:10036000F04F00F0A0B90098012240000023D0EB2C
:10037000020263EBE073009821464FEAE074B8EBA9
:10038000000061EB0401E9E783F000435BE781F0E3
:10039000004158E72DE9FE4F81EA030404F00044D0
:1003A00021F0004100944FF0000B23F0004350EA8D
:1003B00001045ED052EA03045BD0C3F30A54C1F3D4
:1003C0000A552C44A4F2F3340194A0FB0254C1F367
:1003D000130141F48011C3F3130343F4801301FBB1
:1003E000024400FB034E840A970A44EA815447EA18
:1003F0008357A4FB076802958D0A05FB07854FEA22
:10040000932C04FB0C542705029D4FEA065847EA3B
:100410001637B5EB08056EEB070C870E920E47EA10
:10042000811742EA8312A7FB0201B6EB0B0164EBD2
:1004300000042B0D43EA0C335E1844EB1C50DA46E3
:100440005146E7FB0201C5F313044FEA0B3343EABD
:1004500014534FEA0432019C43EA0603A4F10C044E
:100460000294009CCDE900B400F02CF903B0BDE883
:10047000F08F00200146F9E72DE9F04D81EA0304F1
:1004800004F0004B21F0004514464FF0000A23F021
:10049000004150EA050220D054EA01021DD0C5F304
:1004A0000A570246C5F31303C1F31300C1F30A56FA
:1004B00040F4801543F48013A7EB0608101BD646C2
:1004C00008F2FD3873EB050002D308F1010801E0E2
:1004D00092185B41B8F1000F03DA00200146BDE835
:1004E000F08D00204FF48011064684460EE0171B65
:1004F00073EB050705D3121B63EB050306434CEAB8
:10050000010C49084FEA300092185B4150EA01079C
:10051000EDD152EA030012D082EA040083EA050119
:10052000084305D0101BAB4106D20122002306E090
:1005300000224FF0004302E06FF0010253101AEB6B
:1005400006004CEB085110EB0A0041EB0B01BDE833
:10055000F04D00F0A8B80EB5C10F80EAE070084475
:10056000CA07002140F233438DE80E000A460B46CD
:1005700000F0A8F803B000BD00F0004230F00040E9
:100580000AD0C10D01F56071C0F3160042EA0151B5
:10059000C20840071143704700200146704701F030
:1005A000004330B421F0004150EA010206D00A0DA8
:1005B000A2F56072C1F31301002A02DC30BC0020F6
:1005C0007047440F44EAC104C100E01830BC00EB9E
:1005D000C25000F031B8202A04DB203A00FA02F1C0
:1005E000002070479140C2F1200320FA03F3194321
:1005F00090407047202A04DB203A21FA02F00021C3
:10060000704721FA02F3D040C2F120029140084322
:1006100019467047202A06DBCB17203A41FA02F030
:1006200043EAE07306E041FA02F3D040C2F120024F
:1006300091400843194670470029A8BF7047401CE5
:10064000490008BF20F00100704710B4B0FA80FCE8
:1006500000FA0CF050EA010404BF10BC704749B125
:10066000CCF1200421FA04F411FA0CF118BF012195
:1006700021430843A3EB0C01CB1D4FEA00614FEA75
:10068000102042BF002010BC704700EBC350104444
:100690000029A4BF10BC7047401C490008BF20F0CF
:1006A000010010BC704710B5141E73F1000408DA85
:1006B000401C41F1000192185B411A4301D120F026
:1006C000010010BD2DE9F04D92469B4611B1B1FAE3
:1006D00081F202E0B0FA80F220329046FFF77BFF11
:1006E00004460F4640EA0A0041EA0B0153465A46C7
:1006F000084313D0114653EA010019D0C8F1400253
:100700005046FFF777FF05460E465046594642468B
:10071000FFF761FF084305D0012004E02046394679
:10072000BDE8F08D0020054346EAE0762C433743D0
:100730000A986305E40AA0EB08000022FD0A44EAD7
:1007400047540A3002D500200146E9E70105101997
:100750006941DDE9084500196941BDE8F04DA2E7AE
:100760002DE9F04D00231A461B1A8A4103DB0020B5
:100770000146BDE8F08DC1F30A52C1F3130141F403
:1007800080154FF0000BD10702D100186D41521EA9
:100790000027044640F2FF11384601EB620A3E464C
:1007A0008046024600204FF48011FFF723FFC21954
:1007B0007141BB1846EB0100B4EB030C75EB000C68
:1007C00004D3E41A65EB000517460E46241908F118
:1007D00001006D4180463428E3DDF91946EB06003F
:1007E000091BA84103D24FF0FF32134601E000225B
:1007F00013461BEB070046EB0A51BDE8F04DFFF72F
:1008000052BF0000064C074D06E0E06840F00103CF
:1008100094E8070098471034AC42F6D3FFF7B8FCD1
:10082000D8440008F84400082DE9F05FC84C00EEF9
:10083000100A2DED028BDFF81C83B8EEC00AA578F4
:10084000D4ED020ADDE90F7638F9158070EE800AE2
:1008500000EE108ADDE90DA9B8EEC00ADDF830C05F
:10086000DFF8F08270EEC03A00EE101A08F1C80806
:10087000C4ED023AB8EEC00AD4ED030A38F9158087
:1008800070EE800A00EE108ADFF8CC82B8EEC00A63
:1008900030EEC03A00EE102A84ED033AB8EEC00AFA
:1008A000D4ED040A38F9158070EE800A00EE108A43
:1008B000DFF8A882B8EEC00A30EEC00A00EE903A27
:1008C00084ED040AF8EEE00A94ED081A38F9158070
:1008D00031EE201A00EE908ADFF88082F8EEE00A0E
:1008E00008F1C80871EE602A00EE90CAC4ED082A2B
:1008F000F8EEE00A94ED091A38F9158031EE201A65
:1009000000EE908ADFF84C82F8EEE00AA8F1C80801
:1009100031EE602A00EE90AA84ED092AF8EEE00A92
:1009200094ED0A1A38F9158031EE201A00EE908AFB
:10093000DFF82482F8EEE00A71EE601A00EE909A79
:10094000C4ED0A1AF8EEE00A94ED051A31EE201A09
:1009500008F1C808DFF808E238F915800EF1C80B75
:1009600000EE908AF8EEE00A71EE600A01EE107A6D
:10097000C4ED050AB8EEC11A94ED064A3EF9158099
:1009800034EE014A01EE108AB8EEC11A34EE411A73
:1009900004EE106A84ED061AB8EEC44AD4ED074A94
:1009A0003BF9158074EE844A04EE108ADFF8A481C6
:1009B000B8EEC44A34EEC44A84ED074A28F815005C
:1009C00008F1C80020F81510C83020F81520634839
:1009D00020F81530C83000F1C80120F815C021F802
:1009E00015A000F57A7121F815902EF815702BF8E6
:1009F0001560DFED5C4A04F1420283EEA45AFDEE7D
:100A0000C53A13EE900A01B21180DFED563AC3EEFB
:100A1000234ABDEEE43A13EE100A00B2508081463C
:100A20009FED503AC0EE033ABDEEE30A10EE100A15
:100A300000B2908080469FED4B0A04F14E0082EE9A
:100A4000803ABDEEC30A10EE102A02809FED450ADF
:100A5000C2EE002ABDEEE20A10EE102A42809FED9F
:100A6000410A81EE802ABDEEC20A10EE102A9FEDE7
:100A70003D0A828004F13602C0EE801ABDEEE10A22
:100A800010EE100A9FED370A06B2C1EE000A16807A
:100A9000BDEEE00A10EE100A9FED320A00B2C4EE7D
:100AA000000A50808246BDEEE00A10EE100A00B245
:100AB000908083460846FFF74EFD9FED2B8B53EC4D
:100AC000182BFFF767FCFFF76AFD294F386048468F
:100AD000FFF741FD53EC182BFFF75CFCFFF75FFDC0
:100AE00078604046FFF737FD53EC182BFFF752FCB8
:100AF000FFF755FDB8603046FFF72DFD9FED1D8BCC
:100B000053EC182BFFF7B8FCFFF749FDA7F10C06D3
:100B100030605046FFF71FFD53EC182BFFF7ACFC7D
:100B2000FFF73DFD70605846FFF715FD53EC182B9D
:100B3000FFF7A2FCFFF733FD6D1CB060E8B2A070B8
:100B4000642801D10020A070BDEC028BBDE8F09FAD
:100B500000000020F0020020800400209800002007
:100B6000100600200000C842000000000000403FC6
:100B7000C4070020FCA9F1D24D626040FEE70000EE
:100B8000014800F055B800006008002001681823F3
:100B9000CAB2103AB2FBF3F2054B6FF30901032A14
:100BA0009B5CC36500D9091D81650846704700003C
:100BB000C843000810B5014600208B698A6A4FF0CF
:100BC000C07453B1B3F5005F15D072B1012A0CD0D7
:100BD000022A0AD0032A09D104E01AB1012A06D058
:100BE000022A03D1C96AC90100D5012010BDC96A12
:100BF000A142FAD010BD002AF7D0012AF2D0022A71
:100C0000F3D0032AF3D010BD7047704790F8351029
:100C1000022903D08021416501207047052180F819
:100C200035100068016821F0010101600020704763
:100C30002DE9F84304464FF00009CDF800906348D1
:100C40004FF41651A56D0068B0FBF1F72E6894F8CB
:100C50005C10082000FA01F131420FD021680A68C7
:100C600052070BD50A6822F004020A6094F85C105F
:100C70008840A860606D40F00100606594F85C10E9
:100C80004FF0010808FA01F0304208D021684969A4
:100C9000090604D5A860606D40F00200606594F814
:100CA0005C1004208840304208D021680968890718
:100CB00004D5A860606D40F00400606594F85C1095
:100CC00010208840304218D021680968090714D5DF
:100CD000A86020680168490304D50068000308D5AE
:100CE000A16C07E00168C90503D4016821F008017F
:100CF0000160216C09B12046884794F85C102020DF
:100D00008840304231D021680968C9062DD5A860D5
:100D100094F8350005282068016806D0490347D5B6
:100D2000006800031DD4616C1CE021F01601016015
:100D30002068416921F080014161206C08B9A06CF4
:100D400020B12068016821F00801016094F85C106E
:100D50003F208840A86084F8349084F83580216D65
:100D60001FE0E16B09B120468847606D00282BD059
:100D7000606DC00714D0052084F835002068016834
:100D800021F0010101600098401C0090B84203D896
:100D900020680068C007F6D184F8349084F8358064
:100DA000E16C002910D001B02046BDE8F0430847AF
:100DB0000168C905D5D4016821F01001016084F8EB
:100DC000349084F83580CCE7BDE8F88390000020AB
:100DD0002DE9F041044600F055F906465CB10025C6
:100DE00084F83450022084F835002068016821F02E
:100DF000010101600DE00120BDE8F08100F042F941
:100E0000801B052805D920206065032084F8350063
:100E1000F2E720680068C007F0D122681168204816
:100E20000140D4E901031843D4E90336334318439E
:100E300063691843A3691843E3691843236A184395
:100E40000843616A042903D1D4E90B131943084309
:100E5000106020684069666A20F0070130460E4342
:100E6000012704280CD1A06A0643E06A40B120465D
:100E7000FFF7A0FE20B14020606584F83570BAE726
:100E8000206846612046FFF781FE94F85C203F21F0
:100E900091408160656584F835700020ACE7000002
:100EA0003F8010F070B5044600F0ECF80546601C79
:100EB00002D004480078044400F0E4F8401BA0424B
:100EC000FAD370BD840000202DE9F84FDFF87CB123
:100ED00000224FF001084FF0030A4FF00F090BF109
:100EE000040E00BF0B6808FA02F42340A3426ED13F
:100EF0004D68022D01D0122D0ED1D50800EB850CC6
:100F0000DCF820505607F70E09FA07F6B5430E69CC
:100F1000BE402E43CCF82060066855000F790AFACF
:100F200005FC07F0030726EA0C06AF4037430760CD
:100F30004E68012E05D0022E03D0112E01D0122EA4
:100F40000ED18668CF6826EA0C06AF40374387602B
:100F50004668A6430C79C4F30014944034434460BB
:100F6000C6688C6826EA0C06AC403443C4604C6802
:100F7000E40065D5364C256845F480452560246835
:100F800022F0030504F480440094324C2E19D6F864
:100F9000084895072F0F09FA07F5AC432E4DA842D4
:100FA00001D1002524E02D4DA84201D101251FE0EB
:100FB0002B4DA84201D102251AE02A4DA84201D1A9
:100FC000032515E0284DA84202D1042510E037E0A2
:100FD000264DA84201D105250AE0254DA84201D1A0
:100FE000062505E0234DA84201D1072500E008258C
:100FF000BD402543C6F80858DBF800405D464E6802
:101000009C43F60300D51C432C60DEF80040754677
:101010004E689C43B60300D51C432C600B4D08352D
:101020002C684E689C43F60200D51C432C60074D8B
:101030000C352C684E689C43B60200D51C432C60CE
:10104000521C102AFFF44EAFBDE8F88F003C01405F
:1010500044380240003001400000024000040240D9
:1010600000080240000C0240001002400014024040
:1010700000180240001C02400AB181617047090457
:10108000FBE70000014880687047000084000020F2
:10109000704770472DE9F05F02680446D2F8188067
:1010A0005569566890F83E007449DFF8D0A1DFF822
:1010B000CCB1DFF8CC918F1C0AF17E0A0BF13E0B0C
:1010C000102812D0402810D00D425BD0B00559D561
:1010D000936920460021DB435B0700D5012192691B
:1010E000D243120648D5828947E015F0011F05D08A
:1010F000B00503D5204601F043FB10E05F48801D9A
:10110000054205D0B00503D5606CC0B2106106E0A1
:101110000D4204D0B00502D5204601F0B7FA18EA16
:10112000090F14D015EA0A0F08D0700506D53D4204
:1011300006D12046BDE8F05F01F024BA3D421FD041
:10114000B0051DD52046BDE8F05F01F0DBB915EA1A
:101150000B0F08D0700506D53D4206D12046BDE8EC
:10116000F05F01F0D4B83D420AD0B00508D5204662
:10117000BDE8F05F01F06CB8028B92B2FFF789FF17
:10118000BDE8F09F3D480E30054206D0B00504D5BD
:101190002046BDE8F05F01F021BB18EA090F4FF0CF
:1011A000280134D015EA0A0F23D0700521D53D421D
:1011B00021D194F83D302046628D002AE0D0426A69
:1011C000541C4462046812782261428D521E42858A
:1011D000428D002AD4D1292BD2D10268536823F43E
:1011E000806353602122026380F83D1000F0BFFA53
:1011F000C6E73D42C4D0B005C2D5608D0028BFD03F
:10120000606A411C616221680078086131E015EA7A
:101210000B0F22D0700520D53D4220D194F83D30EF
:101220002046648D002CABD01469426A551C45627F
:101230001470428D521E4285428D002AA0D12A2B65
:101240009ED10268536823F48063536022220263B4
:1012500080F83D1000F08AFA92E73D4290D0B00548
:101260008ED5608D00288BD01169606A421C626245
:101270000170608D401E608582E700000200010061
:10128000040010007047000070B5040004D094F80A
:101290003D00002510B106E0012070BD84F83C50EF
:1012A000204600F00BFA242084F83D0020680168F5
:1012B00021F00101016000F08BFB33492268B0FB93
:1012C000F1F15160314A6368934206D94FF4967345
:1012D00059434FF47A73B1FBF3F12368491C196247
:1012E000616891420BD84900B0FBF1F2C2F30B02E6
:1012F000042A01D2042019E0B0FBF1F016E0A36843
:101300009BB301EBC10202EB0112B0FBF2F242F41B
:101310008042120530D04BB301EBC10202EB011148
:10132000B0FBF1F040F4804040F400402168C86117
:10133000D4E90701084321680860D4E90310084391
:1013400021688860D4E9050108432168C8602068E5
:10135000016841F0010101602564202084F83D000E
:10136000256384F83E50002070BD00E006E001EBEC
:101370004102B0FBF2F2CCE70120D7E701EB4101DB
:10138000B0FBF1F0D0E7000040420F00A086010062
:1013900070477047704700002DE9F84F1F46904690
:1013A0008A460446DDF82890FFF76CFE054694F85F
:1013B0003D0020286FD1192301226E492046009557
:1013C00001F0A1FA0028F5D194F83C00012862D080
:1013D000012084F83C0020680168C90703D1016836
:1013E00041F0010101602068016821F400610160A1
:1013F000222084F83D00102084F83E000026266458
:10140000C4F8248067855C48E062608D20852B46A7
:101410004A465146204600F0BCFF28B1206C84F8B3
:101420003C60042841D04DE0208D544F68B1012824
:1014300014D002282068016816D041F48061016050
:10144000206841698069009085E020684169816970
:101450000091016841F4007101607CE0206801683E
:1014600021F480610160F0E721F48061016020686F
:10147000016841F40061E2E7032849D801280BD054
:10148000022817D04B46002239462046009501F02D
:101490003AFAB8B92AE06AE02A464946204601F0FD
:1014A000A7FA28B1206C20280CD00120BDE8F88FC5
:1014B000206845E04B46002239462046009501F061
:1014C00022FA08B10320F1E72068016841F40071B5
:1014D000016020680169606A421C62620170208DAF
:1014E000401E2085608D401E6085E1E72068016810
:1014F00021F48061016020680169606A421C6262B7
:101500000170208D401E2085608D401E6085D1E7D2
:101510002A464946204601F06BFA0028C2D12068CD
:101520000269606A411C61620270208D401E208544
:10153000608D401E608520684169C94349070AD40F
:101540000169606A421C62620170208D401E208524
:10155000608D401E6085208D00288DD1202084F86C
:101560003D0084F83E6084F83C6000209EE7022045
:101570009CE70000020010000000FFFF04000100D3
:101580002DE9F84F1F4690468A460446DDF828901C
:10159000FFF778FD064694F83D0020287ED11923F8
:1015A000012243492046009601F0ADF900287DD183
:1015B00094F83C00012879D0012084F83C00206890
:1015C0000168C90703D1016841F001010160206889
:1015D000016821F400610160212084F83D001020A1
:1015E00084F83E0000252564C4F8248067853148CE
:1015F000E062608D208533464A465146204600F021
:1016000037FF28B1206C84F83C5004284CD00DE002
:10161000206841698069009030E0324649462046A2
:1016200001F017FA28B1206C042838D00320BDE857
:10163000F88F606A411C6162216800780861608DE2
:10164000401E6085208D401E80B2208521684A6939
:10165000D24352070BD450B1606A421C62620078D8
:101660000861608D401E6085208D401E20853246B9
:101670004946204601F020F90028D4D1208D0028C9
:10168000CBD154F83D0B016841F40071016020207A
:1016900004F81E09E57765770020C8E706E02068B2
:1016A000016841F4007101600120C0E70220BEE73B
:1016B000020010000000FFFF7047704770B586B051
:1016C000064614216846FEF7B3FD23493068884278
:1016D00040D122480025016841F002010160006804
:1016E000694600F002000590C02000901220019091
:1016F0000120029003200390042004901848FFF773
:10170000E3FB16481030016841F4001101600068E5
:10171000154C00F400100590124820604005C4E903
:101720000105C013C4E9035080106561C4E9065087
:10173000256220466562FFF74BFB08B1FFF765FAAB
:10174000B463002211461F20A66300F077F81F2023
:1017500000F068F806B070BD005400403038024018
:10176000000402401060024060080020704770478B
:10177000024881680278114481607047840000202B
:101780000B4810B5016841F400710160016841F433
:1017900080610160016841F480710160032000F004
:1017A0006DF8002000F006F800F024F8002010BDCD
:1017B000003C024070B50D4D04464FF47A71287814
:1017C000B1FBF0F00A490968B1FBF0F000F0C4FA8F
:1017D00048B9102C07D200222146501E00F02EF8E6
:1017E00000206C6070BD012070BD000084000020EE
:1017F000900000200A4808B5016841F4804101606A
:10180000006800F4804000900548001F016841F026
:1018100080510160006800F08050009008BD000019
:101820004438024000F01F0201219140400980002D
:1018300000F1E020C0F8001170470000F0B40E4B3A
:101840001B680C46C3F30223C3F10705042D00D91E
:101850000425191D072901D2002300E0DB1E012603
:1018600006FA05F1491E214099409E40761E164019
:101870003143F0BC01F05EBE0CED00E0064900F023
:10188000070208684FF6FF03184040EA0220034AA7
:1018900010430860704700000CED00E00000FA05FE
:1018A0002DE9F0470E46050065D0DFF81481D8F821
:1018B0000000F7B200F00F00B04207D288F80070C5
:1018C000D8F8000000F00F00B04254D128683D4C19
:1018D000810712D5400703D5206840F4E05020600E
:1018E0002878000703D5206840F460402060206815
:1018F000A96820F0F000084320602878C0072DD0A8
:10190000304968680839012812D0022813D003280A
:1019100011D00968890700292DDA216821F0030117
:1019200001432160FFF7AEFB814641F2883A0EE0A9
:1019300009688903EFE709688901ECE7FFF7A2FB73
:10194000A0EB0901514502D90320BDE8F0872068CA
:10195000696800F00C00B0EB810FEFD1D8F80010EF
:10196000404601F00F01B14207D90770006800F04E
:101970000F00B04201D00120E7E72878400705D5E5
:101980002068E96820F4E0500843206028780007C8
:1019900006D52068296920F4604040EAC100206033
:1019A00000F026F82168084AC1F30311515CC840D1
:1019B000064908600020FFF7FDFE0020C5E7000093
:1019C000003C024008380240D0430008900000204C
:1019D0000448054900680968044AC1F38221515C42
:1019E000C84070479000002008380240E0430008DB
:1019F000104810B5006810F00C010F4818D00429E9
:101A000016D0082914D10B4C241F216801F03F0285
:101A1000216821680023C1F38811A1FB0001FEF7B2
:101A2000CFFB2168C1F30141491C4900B0FBF1F033
:101A300010BD0000083802400024F4002DE9F84FE2
:101A4000050076D02878DFF8F8B2BE4CC00749D040
:101A5000DBF800105846C1F38101012908D0006865
:101A6000C0F3810002280AD1201D0068400206D57B
:101A70002068800336D568680028E2D032E06868C4
:101A8000B0F5803F10D0B0F5A02F206810D020F422
:101A900080302060206820F4802020606868A0B139
:101AA000FFF7F0FA06460CE0206840F48030F4E7D7
:101AB00040F480202060F7E7FFF7E4FA801B6428F9
:101AC00073D820688003F7D50CE0FFF7DBFA0646F1
:101AD00005E000BFFFF7D6FA801B6428F0D8206825
:101AE0008003F7D42878DFF8608280074FF0000980
:101AF0003ED5DBF80010584611F00C0F09D00068F5
:101B0000C0F3810002280BD18D48001F00684002FD
:101B100006D42068800715D5E868012809D111E0AE
:101B2000E868B8B10120C8F80000FFF7ABFA064634
:101B300005E002E1FFF7A6FA801B0228C0D8206862
:101B40008007F7D52068296920F0F80040EAC10035
:101B500020600DE0C8F80090FFF794FA064604E014
:101B6000FFF790FA801B02281FD820688007F7D45F
:101B70002878000722D5724E744869696C3671B1B5
:101B800001210160FFF77EFA074604E0FFF77AFAC9
:101B9000C01B022809D830688007F7D50EE0C0F8CE
:101BA0000090FFF76FFA074605E083E0FFF76AFA57
:101BB000C01B02287ED830688007F7D428784007F9
:101BC00068D5DFF87CA100270AF1380ADAF80000AE
:101BD000C0000BD4DAF8001041F08051CAF80010B0
:101BE000DAF80000012700F080500090584E30686D
:101BF000C00510D4306840F480703060FFF742FABE
:101C0000009005E0FFF73EFA0099401A022851D8EB
:101C10003068C005F6D54A4EA868683601280FD04E
:101C20000528306810D020F001003060306820F0C6
:101C300004003060A868B8B1FFF724FA00900FE004
:101C4000306840F00100F4E740F004003060F7E74E
:101C5000FFF718FA0099411A41F28830814264D89E
:101C600030688007F4D50EE0FFF70CFA009007E02B
:101C7000FFF708FA0099411A41F28830814254D89E
:101C800030688007F4D42FB1DAF8001021F08051C9
:101C9000CAF80010A869C0B3DBF80010C1F38101D5
:101CA00002294AD00228484607D0C8F86000FFF74A
:101CB000E9F900E039E005463AE04746C8F8600037
:101CC000FFF7E0F9064604E0FFF7DCF9801B022885
:101CD0002BD820688001F7D4D5E907010843A96A09
:101CE0001C4A490802EB01416A6A41EA8211084331
:101CF00095F82C1040EA01611148001F0160012095
:101D00003866FFF7BFF9054605E014E0FFF7BAF9BA
:101D1000401B022809D820688001F7D50BE000BFDE
:101D2000FFF7B0F9401B022802D90320BDE8F88F65
:101D300020688001F4D40020F8E70120F6E70000D5
:101D4000083802400038024000004742800E4742F7
:101D5000007000400000FFFF10B5401EB0F1807F12
:101D600001D3012010BD4FF0E02460610F21601706
:101D700001F0E0FB0020A06107202061002010BDE1
:101D80007047704730B590F83820012A20D00122E2
:101D900080F83820022380F8393003685C6824F02A
:101DA00070045C6003685C680D682C435C600368C9
:101DB0009C6824F080049C6003689C6849680C431C
:101DC0009C6080F83920002180F83810084630BD2A
:101DD000022030BD10B5040003D094F8390010B1D2
:101DE00007E0012010BD002084F83800204600F0F4
:101DF0000DF8022084F83900211D206801F022FC32
:101E0000012084F83900002010BD000008B50068EA
:101E1000B0F1804F12D10A48016841F00101016020
:101E20000068002200F00100009011461C20FFF71E
:101E300005FDBDE808401C20FFF7F4BC08BD00000C
:101E40004038024070B5044690F83800012817D099
:101E5000012584F83850022084F83900206882680F
:101E600022F0770222F47F4282600868502837D03F
:101E70000DDC202859D005DC88B3102841D151E071
:101E8000022070BD302853D040283AD13FE060286E
:101E90002ED070280BD0B0F5805F03D0B0F5005F76
:101EA0002FD110E02068816821F0070115E0CB6890
:101EB000D1E90121206801F025FC2168886840F003
:101EC000770088601DE0CB68D1E90121206801F02E
:101ED00019FC2068816841F48041816011E01EE0B6
:101EE000CA684968206801F01FFC5021206806E09C
:101EF000CA684968206801F028FC6021206801F068
:101F00000BFC84F83950002084F8380070BDCA6892
:101F10004968206801F008FC40212068EFE70021B3
:101F20002068ECE710212068E9E720212068E6E737
:101F300030212068E3E7704770B504460068016906
:101F40004FF00005C943890715D4C168C943890703
:101F500011D4E91E01610120207620688069800784
:101F6000204602D0FFF7E7FF04E000F098F8204693
:101F700000F096F8257620680169C943490717D40F
:101F8000C168C943490713D46FF0040101610220FD
:101F900020762068806910F4407F204602D0FFF749
:101FA000CAFF04E000F07BF8204600F079F82576BF
:101FB00020680169C943090716D4C168C9430907E4
:101FC00012D46FF008010161042020762068C069F6
:101FD0008007204602D0FFF7AEFF04E000F05FF874
:101FE000204600F05DF8257620680169C943C906DE
:101FF00017D4C168C943C90613D46FF01001016139
:10200000082020762068C06910F4407F204602D066
:10201000FFF791FF04E000F042F8204600F040F89E
:10202000257620680169C943C90708D1C168C94339
:10203000C90704D1891E0161204600F032F82068EA
:102040000169C943090609D4C168C943090605D411
:102050006FF0800101612046FFF792FE2068016960
:10206000C943490609D4C168C943490605D46FF07C
:1020700040010161204600F015F820680169C9435C
:1020800089060BD4C168C943890607D46FF02001C3
:1020900001612046BDE87040FFF773BE70BD704718
:1020A000704770477047FEE70148FEF7F3BF000036
:1020B000D007002010B5806B01680A6822F48062A6
:1020C0000A6000214185426B1165826B116590F8B1
:1020D0003D302022602B80F83D2080F83E1007D054
:1020E00001680A6822F001020A60FFF7CBF810BD10
:1020F000016401680A6822F001020A60FEF7C8FF65
:1021000010BD000070B590F83D1004460025202653
:10211000006829292DD02A292BD094F83D10602958
:1021200004D04168090501D484F83D60256384F832
:102130003E50016821F40061016020684168090592
:1021400037D5416821F400614160606B90F835201B
:102150003349012A12D00165606BFEF757FD38B391
:102160002068016821F00101016084F83D60606B26
:102170001CE02563282184F83D10DAE7A06B016597
:10218000A06BFEF743FD98B120684169C943490639
:1021900004D40169606A421C6262017020680168AF
:1021A00021F00101016084F83D60A06B016D88475A
:1021B0000FE094F83D1060291DD04169C9434906DC
:1021C00004D40169606A421C626201702046FFF714
:1021D00059F894F83D0028280CD1206C400709D507
:1021E0001048E062256384F83D6084F83E50204644
:1021F000FFF7CEF870BD84F83D6025644169C9439E
:10220000490604D40169606A421C62620170206858
:10221000016821F0010101602046FEF739FFD8E78F
:10222000B52000080000FFFF01684A69D24352054B
:102230000CD46FF480624A6104210164002140F8EB
:10224000301F202242730173012070470020704725
:1022500010B5C26A438D0168042B06D0438D032B51
:1022600008D0438D022B19D00EE04A6822F4806218
:102270004A6008E04A6822F480624A6001680A689D
:1022800022F480620A6001680A69416A4B1C436259
:102290000A70418D491E4185002010BD022A2AD0B6
:1022A000012A28D00A6842F400720A6001680A69AB
:1022B000416A4B1C43620A70418D491E4185016889
:1022C0000A69416A4B1C43620A70418D491E41856F
:1022D00001684A6822F440724A60202180F83D106B
:1022E0000021016390F83E2080F83E10402A0BD078
:1022F000FFF74FF8D0E70A6822F480620A600168AD
:102300000A6842F48072D0E7FFF7D6F9C4E710B547
:1023100090F83D10222937D1418D032911D9016848
:102320000A69416A4B1C43620A70418D491E41850E
:10233000418D032928D10068416821F48061416002
:1023400022E0012900D0F9B901680A6822F480620C
:102350000A6001684A6822F4E0624A6001680A691A
:10236000416A4B1C43620A70418D491E4185202100
:1023700080F83D100021016390F83E2080F83E1067
:10238000402A03D0FFF705F8002010BDFFF794F9AD
:10239000FAE72DE9F84F0446C06A1E4692460D46FC
:1023A00021680A6842F480620A60042807D0012884
:1023B00005D010F5803F02D0206B112804D1206891
:1023C000016841F4807101604FF00118534600220A
:1023D00041462046009600F096FAB8BB206908F105
:1023E0000109B0F5804F12D00620216800EAD51708
:1023F00047F0F00008613346524608F107012046D5
:1024000000F0B2FA38B1206C04282FD01EE0E8B2F8
:1024100040F001001FE02168E8B2086133465246EF
:102420004946204600F0A0FA0028ECD12068416916
:1024300081690091016841F4807101605346002276
:1024400041462046009600F05EFA10B10320BDE838
:10245000F88F47F0F100216808613346524649463B
:10246000204600F081FA0028CDD1F0E70120EEE708
:10247000F8B50446C06A1E460D461746042807D024
:10248000012805D010F5803F02D0206B122804D11E
:102490002068016841F480710160134600224FF00A
:1024A00001112046009600F02EFAA0B92069B0F57F
:1024B000804F12D00620216800EAD51040F0F000CD
:1024C000086133463A460E49204600F04DFA38B1CD
:1024D000206C042811D00320F8BD05F0FE0000E0B8
:1024E000E8B221680861064933463A46891F20460A
:1024F00000F03AFA0028EBD1F8BD0120F8BD000049
:102500000800010010B5C26A90F83D10212921D1C0
:10251000418D49B1416A4A1C4262026809781161E1
:10252000418D491E418515E020230021042A13D046
:10253000082A11D012F5803F0ED00268546824F4A6
:10254000E06454601122026380F83E1080F83D3050
:10255000FEF720FF002010BD0268546824F4E064F8
:1025600054600268146844F400741460016380F8D5
:102570003D3090F83E2080F83E10402AE8D1FFF729
:102580009CF8E7E710B590F83D1090F83E30C26A2D
:10259000048D24B1212934D0402B30D074E021297E
:1025A000FAD120230021042A13D0082A11D012F5D1
:1025B000803F0ED00268546824F4E0645460112215
:1025C000026380F83E1080F83D3000BFFEF7E2FE67
:1025D0005AE00268546824F4E064546002681468A5
:1025E00044F400741460016380F83D3090F83E209C
:1025F00080F83E10402AE9D1FFF75FF844E0222935
:1026000042D1418D21B190F83E10402906D032E0F0
:102610000068416821F48061416035E0016D31B1AD
:10262000016D012911D0016D022915D02CE0C16C7A
:102630000129816C02D0C1F3072108E00268C9B208
:102640001161016D891C01651EE0816CC9B20268CF
:102650001161016D491CF6E790F83D10222904D064
:1026600090F83D10212906D00EE00068016841F481
:102670008071016008E0416A4A1C42620268097880
:102680001161418D491E4185002010BD78B590F83B
:102690003E50C26A036B90F83D6000240168222E10
:1026A00006D1066D0EB9402D02D0056D25B107E0AB
:1026B00048698869009058E00569B5F5404F08D031
:1026C000458D55B3458D012D0ED0428D022A37D050
:1026D0004DE04A698A6900920A6842F480720A6091
:1026E000016D491C016540E012F5803F09D0042AC4
:1026F00020D0082A1ED0122B1CD0C26A022A08D170
:1027000013E00A6822F480620A6001684A681205D0
:1027100003D50A6822F480620AE04A698A69009255
:102720000A6842F400720A601EE00A6842F480629D
:102730000A6015E00A6822F480620A600168ECE72A
:10274000C26A022A13D00A6822F480620A60016811
:102750000A6842F400620A6001684A6812050AD4F5
:1027600001684A69896900910465002078BD0A689A
:1027700042F48062EFE74A6842F480524A60EFE731
:1027800090F83E10402909D00169B1F5804F10D072
:10279000016D99B1016D012915D01CE0016D19B9C8
:1027A000416C01F0FE0114E0416CC9B241F001013D
:1027B0000FE090F83D102129F6D1F1E7416CF022AD
:1027C00001F4407103E0416CF12201F4407142EAEE
:1027D000D1110068016100207047000038B590F801
:1027E0003D2001684B6823F4E0634B6003680021DF
:1027F0005C6900941C6844F001041C6003681C6858
:1028000024F480641C6003685C6824050BD590F890
:102810003D40222C2BD090F83D402A2C27D0446BF1
:10282000246864684485448DE4B15C69E4436407CA
:1028300007D41C69436A5D1C45621C70438D5B1E96
:10284000438503685C69E443640607D41C69436AF2
:102850005D1C45621C70438D5B1E4385036C43F019
:1028600004030364036C23B1FFF74CFC1FE0846B8B
:10287000D6E72023282A09D02A2A07D0292A05D0DA
:10288000046B222C0CD0222A0AD010E0094AC26222
:10289000016380F83D3080F83E10FEF779FD06E0D8
:1028A000016380F83D3080F83E10FEF75FFF0020A6
:1028B00038BD00000000FFFF70B516460D46044607
:1028C0001AE02046FFF7B0FC08B1012070BD681C7B
:1028D00012D025B1FEF7D6FB801BA8420CD954F8C4
:1028E000400F40F0200044F8100900202060202113
:1028F00061732073032070BD20684069C0434007A6
:10290000DFD4002070BD2DE9F0471E4690460D46ED
:102910000446C1F30747DDF8209012E0701C10D088
:102920002EB1FEF7AFFBA0EB0900B04209D90020A1
:1029300044F8300F20216173A07320730320BDE899
:10294000F0872068012F0AD0806925EA0000000482
:10295000000C06D000214145E0D00020EFE740699F
:10296000F3E70121F7E700002DE9F0479A46914689
:102970000D46044600264FF02008C1F307472AE021
:1029800020684069C043400512D42068016841F4C2
:102990000071016021686FF4806048610420206448
:1029A000266384F83D8084F83C600120BDE8F08710
:1029B000B9F1FF3F0FD0B9F1000F05D0FEF762FB70
:1029C000A0EB0A01494506D944F8306F84F80D8020
:1029D00026730320EAE72068012F07D0D0F81800FB
:1029E00025EA00000004000CE0D0C9E74069F7E7E1
:1029F0002DE9F041002590460E460446202721E0AF
:102A00004069C043C0060CD421686FF010004861D3
:102A10002564256384F83D7084F83C500120BDE8AE
:102A2000F0812EB1FEF72EFBA0EB0800B04209D9D1
:102A300054F8400F40F0200044F8040967702570F6
:102A40000320ECE720684169C9434906D8D4002037
:102A5000E5E770B516460D4604461AE02046FFF736
:102A6000E3FB08B1012070BD681C12D025B1FEF750
:102A700009FB801BA8420CD954F8400F40F02000FD
:102A800044F8100900202060202161732073032086
:102A900070BD20684069C0430006DFD4002070BDCF
:102AA00010B52DED0A0B2DED108BF0EE409A8AB08B
:102AB000F0EE418AB0EE609A9FEDFE0A8DED020ABB
:102AC0008DED030A8DED040A9FEDFB8AFB4C94ED1E
:102AD000000AD4ED000A60EE200ACDED000A94ED64
:102AE000000AD4ED050A20EE20FA94ED000AD4ED98
:102AF000060A60EE20AA94ED000AD4ED070A60EE03
:102B0000204A94ED050AD4ED050A60EE20DA94ED32
:102B1000050AD4ED060A20EE205A94ED050AD4EDFC
:102B2000070A20EE20AA94ED060AD4ED060A20EE4C
:102B300020EA94ED060AD4ED070A60EE20CA94ED6F
:102B4000070AD4ED070A20EE20CA21EEA10A02EE00
:102B5000020A02EEA20A01F051FB61EE805A22EE57
:102B6000001A62EE800A23EE030ACDED1D5A8DEDA8
:102B70001E1ACDED1F0A03EEA30A04EE040A01F0AB
:102B80003DFBF6EE002A23EE00DA72EECE0AF0EEFE
:102B900000EA63EE80BA24EE00BA2DEE2E0A70EE43
:102BA000CC0A6BEEAE1A2BEE2E2A72EEED2A20EE38
:102BB000201A75EE640A7AEE6AFA32EECC3ACDED5E
:102BC000060A01EEA01A7AEE2A0A02EE201A75EE23
:102BD000240A60EE200A20EE2F0A41EE830A3CEE22
:102BE000CF3A42EE030A3CEE8F3A01EE830A72EED0
:102BF000CE1A02EE210A8DED010A21EE010A00EE45
:102C0000A00A10EE100AFDF7B7FC41EC100B01F022
:102C1000DBF951EC100BFDF7C2FC7FEE2C0A00EE45
:102C2000100A2FEEAE2A8DED080A9DED010A20EE66
:102C3000AE1A8DED072ACDED010A8DED051ADDEDF9
:102C4000000A20EE2E0A70EEED0A70EECE0A70EE4B
:102C50008C0ACDED090A8DED000A20EE2F0A10EE48
:102C6000100AFDF789FC41EC1F0B1CEE100AFDF762
:102C700083FC41EC1C0B1EEE100AFDF77DFC9FED62
:102C8000901B53EC112BFDF782FB53EC1C2BFDF733
:102C90007BFB9DED080A41EC1C0B60EE2EEA1EEE5C
:102CA000900AFDF769FC53EC1C2BFDF773FB53EC0A
:102CB0001F2BFDF7C8FAFDF772FCDDED060A0FEEDB
:102CC000900A1EEE100A2EEEA0FA9DEC020A00EE0B
:102CD00020FAFDF751FC41EC1C0B1DEE900AFDF7AC
:102CE0004BFC9FED771B53EC112BFDF750FB53EC86
:102CF0001C2BFDF749FB9DED000A41EC1C0B10EE6F
:102D0000100AFDF739FC53EC1C2BFDF743FB3AEEA0
:102D10008A0A41EC1C0B2EEE800A10EE100AFDF719
:102D20002BFC53EC1C2BFDF78EFAFDF738FC9DEDC8
:102D30001E1ADDED090A01EE900A9DED072A21EE2B
:102D4000200ADDED1F0A9DED051ADDED1D5A00EE8E
:102D5000C10A6BEEA10A4BEE4F0A30EE200ADDED00
:102D60001F0A20EE821ADDED090AB5EEC00A05EE53
:102D7000E01A6BEE2F0A4DEE610A71EE201A9DEDFE
:102D8000051A65EE810A9DED1E1A41EE420A2DEEEE
:102D90000F1A0BEEEF1A30EE812AF1EE10FA23D063
:102DA000F5EEC01AF1EE10FA1ED0B5EEC02AF1EE23
:102DB00010FA19D0B1EE023ADDED022ADDED030A78
:102DC0009DED041A40EE082A41EE880A02EE081A28
:102DD00040EE039A01EE839A42EE038A79EEA29ABC
:102DE00039EE209A78EE818A94ED050AD4ED060A30
:102DF00029EEC00A00EEC90AD4ED070A00EEE80A7F
:102E0000D4ED000A40EE080AC4ED000A94ED000A71
:102E1000D4ED060A20EE290A00EEA80AD4ED070A2E
:102E200000EEC90AD4ED050A40EE080AC4ED050A11
:102E300094ED000AD4ED050A20EE090A00EEE80A36
:102E4000D4ED070A00EEA90AD4ED060A40EE080AFE
:102E5000C4ED060A94ED000AD4ED050A20EE280A16
:102E600000EE890AD4ED060A00EEE90AD4ED070A5D
:102E700040EE080AC4ED070A94ED000AD4ED000AFA
:102E800094ED051A20EE200AD4ED050A00EE810A21
:102E9000D4ED060A94ED061A00EE810AD4ED070A75
:102EA00094ED071A00EE810A01F0A8F9D4ED000AAA
:102EB0000AE0000000000000A69BC43C6400002063
:102EC000000000000000E03F60EE800AC4ED000A50
:102ED000D4ED050A60EE800AC4ED050AD4ED060AB9
:102EE00060EE800AC4ED060AD4ED070A20EE800ADF
:102EF00084ED070A0AB0BDEC108B0AB010BD0000CB
:102F000010B540482DED0C8BB0F9001000EE101AF2
:102F10003D49B8EEC00AD1ED010AB0F90210B0F98E
:102F20000400C0EE208A00EE101AB8EEC00A80EE4F
:102F3000209A00EE100A3548B8EEC01AB0F9001019
:102F400081EE200A00EE901AB0F90210B0F90400E8
:102F5000B8EEE0DA00EE901AF8EEE0CA00EE900A61
:102F60002B48B8EEE0CAB0F9001000EE901AB0F9A4
:102F70000210B0F90400F8EEE0BA00EE901AB8EED4
:102F8000E0BA00EE900A10EE100AF8EEE09AFDF7B3
:102F9000F3FA9FED20AB53EC1A2BFDF7FBF9FDF78D
:102FA000FEFA08EE100A19EE100AFDF7E5FA53ECE6
:102FB0001A2BFDF7EFF9FDF7F2FA09EE100A18EEF9
:102FC000900AFDF7D9FA53EC1A2BFDF7E3F9FDF758
:102FD000E6FAB0EE694AF0EE4B3AB0EE6B3AF0EE3C
:102FE0004C2AB0EE6C2AF0EE4D1AB0EE481AF0EE14
:102FF000490ABDEC0C8B00EE100ABDE81040FFF74B
:103000004FBD000036000020640000204200002078
:103010004E000020EC51B81E85EB913F10B52DED10
:10302000088BFFF76DFF534CF8EE008AB0EE008A74
:1030300094ED050AD4ED070A94ED061A20EE280A4D
:1030400020EE200AD4ED000A60EE880A00EE810A24
:1030500010EE100AFDF790FA41EC100B00F0A0FB07
:103060009FED459B51EC100B53EC192BFDF792F99A
:10307000FDF795FAE06094ED050AD4ED050A94EDAC
:10308000061A20EE280AB7EE00BA20EE200AD4ED88
:10309000060A60EE880A00EEC10A30EE0B0A10EE56
:1030A000100AFDF769FA94ED060AD4ED070A94EDCB
:1030B000051A20EE080A41EC1A0B20EE200AD4ED86
:1030C000000A60EE880A00EE810A10EE100AFDF791
:1030D00053FA41EC100BB0EE4A1AF0EE6A1A00F007
:1030E0007BFE53EC192B51EC100BFDF753F9FDF758
:1030F00056FAA06094ED060AD4ED060A94ED071A7C
:1031000020EE080A20EE200AD4ED070A60EE880AB5
:1031100000EE810A30EE4B0A10EE100AFDF72CFA91
:1031200094ED050AD4ED060A94ED071A20EE280A5C
:1031300041EC1A0B20EE200AD4ED000A60EE880A5A
:1031400000EEC10A10EE100AFDF716FA41EC100B62
:10315000B0EE4A1AF0EE6A1A00F03EFE53EC192B5C
:1031600051EC100BFDF716F9FDF719FA2061BDECD3
:10317000088B10BD640000206666666666A64C403B
:103180002DE9F0410026DFF86480354634463746A5
:10319000164A15213B2001F0A1F8B8F8081049BAE9
:1031A00006FA81F6B8F80A1049BA05FA81F5B8F8B6
:1031B0000C0040BA04FA80F41420FDF773FE7F1C63
:1031C000FFB2802FE4D3F01706EB5060C11108481E
:1031D0000180E91705EB5161C9114180E11704EB4A
:1031E0005161C9118180BDE8F0810000A007002075
:1031F00030000020F0B585B0204A15213B2001F0B9
:103200006DF81E4C1E4B1E4D2088183D40BA00B272
:103210001880618849BA09B25980A28852BA12B29C
:103220009A8023892E885BBA9B1B0FFA83FE05F1D7
:103230000C03A3F800E066896F8876BAF61B0FFAD4
:1032400086FCA3F802C0A689AD8876BA751B2FB29A
:103250000B4D9F800C35B4F90E302B80B4F9106003
:103260006E80B4F91240AC800096CDE903C7CDE979
:10327000014EFDF7D9FA05B0F0BD0000A00700200F
:10328000480000202DE9F84F01216B2001F08CF857
:10329000754C4FF06A094FF0200A84F8009084F8CA
:1032A00001A00A2502232246D02170480095FEF78E
:1032B00067F94FF0240B84F800B00D2060700223F2
:1032C0002246D02169480095FEF75AF900210A20CC
:1032D00001F055F880216B2001F066F80120FDF720
:1032E000E1FD01210B2001F04AF801216B2001F0E2
:1032F0005BF87520207001232246D0215B480095A1
:10330000FEF73EF90123A4F12C02D0215748009585
:10331000FEF742F86420FDF7C5FDA4F12C084FF438
:10332000005198F8000073287DD000225048FDF726
:10333000A3FE6C2020700026667002234A4AD0212A
:103340004A480095FEF71CF91C2020701820607078
:103350000223454AD02145480095FEF711F91B206C
:10336000207066700223404AD02140480095FEF745
:1033700007F91D2020700127677002233A4AD021E7
:103380003A480095FEF7FCF81A2020706770022377
:10339000354AD02135480095FEF7F2F81920207003
:1033A00066700223304AD02130480095FEF7E8F8D5
:1033B00084F8009084F801A002232B4AD0212B48E6
:1033C0000095FEF7DDF884F800B00D206070022350
:1033D000254AD02125480095FEF7D2F8224A01213E
:1033E0002B3A002000F05EFF6420FDF75BFD98F8AB
:1033F00001003903482835D000221D48FDF73CFE66
:1034000000210A2000F0BBFF6420FDF74BFD0F21D7
:103410000A2000F0B4FF6420FDF744FD124A0321A6
:10342000293A102000E01BE000F03CFF00210A20B8
:1034300000F0A5FF6420FDF735FD16210A2000F0FD
:103440009EFF6420FDF72EFD01216B2000F0ACFFF4
:10345000BDE8F84F044A07212E32032000F022BFB6
:10346000012263E70122C8E72C000020D0070020DA
:10347000000C024070B586B014216846FCF7D8FEF7
:1034800016480024016841F080010160016801F0E4
:1034900080010591016841F008010160016801F0B7
:1034A00008010591016841F00201016000680C4EBD
:1034B00000F002004FF440550590002229463046A6
:1034C000FDF7DAFD01200095CDE90104694630469B
:1034D0000394FDF7F9FC06B070BD000030380240DF
:1034E000000C024010B586B00024104800940194EE
:1034F0000294039404944FF0804105940160532199
:10350000C0E901146321C0E90314FEF763FC4FF422
:103510008050009069460548FEF794FC049404A985
:1035200002480594FEF72EFC06B010BD24080020CA
:10353000FEE770470907090E002806DA00F00F00C1
:1035400000F1E02080F8141D704700F1E02080F8C1
:103550000014704770477047FEF70AB930B593B052
:1035600030216846FCF764FE14210CA8FCF760FECD
:103570001A480025016841F080510160006800F0A0
:10358000805011901648016841F480410160006844
:10359000022400F48040119001200090000401906A
:1035A0008001CDE90640102008904FF4A870CDE9C5
:1035B000090404200B906846FEF740FA0CA90F207E
:1035C00081E831004FF4A0500F90E00210900521E7
:1035D0000CA8FEF765F913B030BD0000403802407A
:1035E000007000401048016841F4700101600F480C
:1035F000016841F0010101600C4A002108321160AC
:1036000002680B4B1A400260031D0A4A1A600268E6
:1036100022F48022026005480C30016002495806FD
:10362000803908607047000088ED00E000380240F3
:10363000FFFFF6FE103000240148FEF77DBC0000BD
:1036400024080020F0B50268234B244D244E254F5A
:10365000254C4FF0804C984209D0604507D0A842D5
:1036600005D0B04203D0B84201D0A04204D122F02C
:10367000700E4A6842EA0E0298421BD0604519D08B
:10368000A84217D0B04215D0B84213D0A04211D0F2
:10369000164DA8420ED0164DA8420BD0154DA8428B
:1036A00008D0154DA84205D0144DA84202D0144DA3
:1036B000A84203D122F44075CA682A4302608A688E
:1036C000C2620A688262984201D0A04201D10969AF
:1036D000016301214161F0BD000001400004004090
:1036E00000080040000C0040000401400040014080
:1036F000004401400048014000180040001C004008
:103700000020004010B5846842EA032224F47F447C
:103710000A432243826010BD826822F070020A438D
:1037200042F007018160704710B5036A046A24F013
:1037300001040462846924F0F00444EA021423F0D2
:103740000A020A438461026210BD10B5036A23F0C5
:10375000100303628369046A23F4704343EA02326C
:1037600024F0A00343EA01118261016210BDFEE76B
:1037700003B401984100009850EAC12018BF04200A
:103780004A0D18BF40F0010040F2FF72B2EB515FEA
:1037900008BF40F00200012808BF052002B07047B2
:1037A00070B5C1482DED020B2DED0E8B82B0119D31
:1037B00025F000449FEDBEDB9FEDBFEB84423EDB76
:1037C000A4F140511098A1F17F6108430FD0BC488B
:1037D000844202DC28D1109830B39DED100B02B06A
:1037E000BDEC0E8B02B0BDE8704000F0A6BC9DEDB4
:1037F000100B53EC1D2B51EC100BFCF7CBFD9DED8A
:10380000100B41EC180B53EC1E2B51EC100BFCF77A
:10381000C1FD53EC182BFCF716FD41EC100B02B068
:10382000BDEC0E8B02B070BD012000F0CDFC02B0EB
:10383000BDEC0E8B02B0BDE8704000F095BCA14815
:103840009FEDA18B844256DA9DED100BB4F1795FA8
:103850000ADA51EC100BFFF78BFF042808BF00F0C9
:1038600093FC9DED100BDAE753EC102B51EC100B91
:10387000FCF790FD41EC190B95480621B0EE490A82
:10388000F0EE690A784400F0DCFB53EC192B51ECA4
:10389000100BFCF77FFD41EC1A0B8E48B0EE490A85
:1038A000F0EE690A0421784400F0CBFB53EC192BAD
:1038B00051EC100BFCF76EFD53EC182BFCF7C3FC1E
:1038C00041EC100B51EC1A0B53EC102BFCF7D4FD10
:1038D000CDE900019DED000B53EC102B9DED100B7D
:1038E00051EC100BFCF756FD9DED101B53EC112B0A
:1038F000FCF7A9FCD2E09DED100B51EC100B00F091
:1039000071FC53EC182BFCF742FD9FED730BCDE9D6
:10391000000153EC102B9DED000B51EC100BFCF74C
:1039200039FD41EC190B6E480621B0EE490AF0EE64
:10393000690A784400F085FB53EC192B51EC100B0D
:10394000FCF728FD41EC1B0B6648B0EE490AF0EE8F
:10395000690A0421784400F074FB53EC192B51ECF4
:10396000100BFCF717FD53EC182BFCF76CFC41EC2B
:103970001C0B51EC190B00F0CBFC41EC180B5A4816
:103980009FED5BABA04222DC53EC1C2B51EC1B0BDC
:10399000FCF772FDCDE900019DED000B51EC180B19
:1039A00053EC102BFCF7F6FC53EC182BFCF74BFCFC
:1039B00053EC1A2BFCF7EEFC53EC1D2BFCF7E4FC4C
:1039C00053EC1E2BFCF7E3FC41EC100B5FE08DED9C
:1039D000008B002000909DED000B51EC180B53EC78
:1039E000102BFCF730FC9DED000B41EC1E0B53EC53
:1039F000102B51EC100BFCF7CDFC53EC192BFCF702
:103A0000C6FC53EC1E2BFCF737FD41EC190B53ECB5
:103A10001C2B51EC1B0BFCF72FFD41EC1B0B53EC4B
:103A20001A2B51EC190BFCF7B5FC53EC1D2BFCF7D2
:103A3000AEFC41EC190B53EC1A2B51EC180BFCF7B4
:103A4000A9FC53EC1B2BFCF7A5FC53EC192BFCF742
:103A50009BFC9DED000B41EC180B53EC1A2B51EC29
:103A6000100BFCF797FC9FED249B53EC192BFCF7F4
:103A70008EFC41EC100B51EC180B53EC102BFCF7A7
:103A800083FC53EC192BFCF782FC41EC100B002D4E
:103A90003FF7C5AE51EC100B81F0004141EC100B2B
:103AA000BDE60000000000000000F03F0000000044
:103AB000075C143326A6913C182D4454FB21F93F92
:103AC0000000F07F0000E03F000000000000F03F39
:103AD000600B00006E0B0000000000000000E03FE3
:103AE000B20A0000C00A00003333EF3F00000000BC
:103AF0000000000000000040182D4454FB21E93F65
:103B000070B59B482DED020B2DED068B079D25F022
:103B10000044A04218DC9748844202DC0AD106988F
:103B200040B19DED060BBDEC068B02B0BDE87040C8
:103B300000F003BB002DCCBF9FED8F0B9FED900BD2
:103B4000BDEC068B02B070BD8F48A04215DD8F48DA
:103B5000A042D8BF4FF0FF3458DD9DED060B51EC6D
:103B6000100BFFF705FE042808BF00F00DFB9DEDCC
:103B7000060BBDEC068B02B070BD9DED060B51EC43
:103B8000100B00F02FFBCDE9060181489FED828BE1
:103B9000A0423CDD8248A0421FDD00249FED82ABA5
:103BA0009DED060B53EC1A2B51EC100BFCF74BFB65
:103BB0009DED060B41EC190B53EC1A2B51EC100B3D
:103BC000FCF7E8FB53EC182BFCF7DEFB53EC192B4E
:103BD000FCF752FCCDE9060149E09DED060B0124FE
:103BE00053EC182B51EC100BFCF72DFB9DED060B45
:103BF00041EC190B53EC182B51EC100BFCF7C4FBE8
:103C000053EC192BFCF738FCCDE906012FE068488E
:103C1000A0421FDD02249FED689B9DED060B53EC37
:103C2000192B51EC100BFCF7B5FB53EC182BFCF7E0
:103C30000AFB9DED060B41EC180B53EC192B51ECD4
:103C4000100BFCF7A1FB53EC182BFCF715FCCDE98E
:103C500006010CE09DED060B032453EC102B9FEDA9
:103C6000580B51EC100BFCF707FCCDE906019DED5C
:103C7000060B53EC102B51EC100BFCF78BFB41ECBB
:103C8000180B53EC182BFCF785FB41EC190B4E4835
:103C90000621B0EE490AF0EE690A784400F0D1F945
:103CA00053EC182B51EC100BFCF774FB41EC180B88
:103CB0004648B0EE490AF0EE690A0521784400F062
:103CC000C0F953EC192B51EC100BFCF763FB41ECE2
:103CD000100B51EC180B53EC102B002C0EDAFCF7E8
:103CE000B2FA9DED061B53EC112BFCF753FB9DED37
:103CF000061B53EC112BFCF74AFB35E0FCF7A3FA4B
:103D00009DED061B53EC112BFCF744FB41EC100B13
:103D10002F48784400EBC40090ED001B51EC100BD1
:103D200053EC112BFCF730FB9DED061B53EC112BD4
:103D3000FCF72AFB41EC100B2648784400EBC4004A
:103D400090ED001B51EC100B53EC112BFCF71FFBFB
:103D500041EC100B002DA2BFBDEC068B02B070BD74
:103D600051EC100B81F0004141EC100B01E7000019
:103D7000000010440000F07F182D4454FB21F93F4F
:103D8000182D4454FB21F9BF0000DC3F0000203E09
:103D90000000F33F00000000000000000000F03FC2
:103DA0000000E63F000000000000000000000040AE
:103DB0000080034000000000000000000000F83F09
:103DC000000000000000F0BF02080000B80700007B
:103DD00042070000FA06000070B56B4E2DED040B93
:103DE0002DED028B82B0DDF81CC0DDE905235C42BD
:103DF0002CF000411C4341EAD474049D22F00040A1
:103E0000B44205D86C422C4340EAD474B4420BD976
:103E10009DED061B9DED040B02B0BDEC028B04B0C2
:103E2000BDE8704000F093B9ACF14054A4F17F6458
:103E30001C430BD0022404EAAC7444EAD274054358
:103E40009FED538B9FED542B07D015E09DED040B98
:103E500051EC100B00F0BEF942E0002C11BF012C18
:103E60009DED040B02B0BDEC028B04BF04B070BD2D
:103E7000022C38D0032C3BD00B439FED491B9FED08
:103E80004A0B0AD0B14218D1B04209D121F0804189
:103E900020F08040079105900FE0002A15DA10E02D
:103EA000434B7B44002C08BF93ED000B0DD0012C3D
:103EB00010D0022C17D0032C1AD0B0421DD1002AEA
:103EC00003DAB0EE410AF0EE610A02B0BDEC028BFB
:103ED00004B070BD93ED000B51EC100B81F000416C
:103EE00041EC100BF1E7B0EE480AF0EE680AECE79F
:103EF000B0EE420AF0EE620AE7E7401A00153C28ED
:103F0000C8BF8DED000B19DCBCF1000FBEBF10F176
:103F10003C0F9FED290B8DED000B0FDB9DED060B8C
:103F200053EC102B9DED040B51EC100BFCF7A4FA95
:103F300000F058F900F04EF9CDE90001002C08BF5F
:103F40009DED000BC1D0012C10D0022C9FED1C0B5D
:103F500053EC102B9DED000B51EC100B0DD0FCF72A
:103F600013FA53EC182BFCF70FFAB9E7019880F01D
:103F7000004001909DED000BA7E7FCF705FA53EC1C
:103F8000182BFCF704FAABE70000F07F00000000FC
:103F9000182D4454FB210940182D4454FB2109C01D
:103FA000182D4454FB21F9BF182D4454FB21F93F2F
:103FB0002A060000000000000000000000000000D1
:103FC000075C143326A6A13C00B52DED048BB0EEA2
:103FD000409AF0EE609A83B051EC190BFCF7C0FBED
:103FE00041EC180B18EE100A18EE901A8DED008BAC
:103FF000002818BF0120084320F00040C0F17F6076
:1040000000F1E040C00F14D019EE101A19EE900A1A
:104010008DED009B002918BF0121084320F00040CE
:10402000C0F17F6000F1E040C00F04BF012000F04C
:10403000CBF8B0EE480A03B0F0EE680ABDEC048B92
:1040400000BD70B504462DED028B4D1E00EBC50082
:10405000B0EE408AF0EE608A90ED000B35F006007D
:1040600017D053EC182B51EC100BFCF793F941ECE3
:10407000100B6D1E04EBC50090ED001B51EC100BF6
:1040800053EC112BFCF7DFF841EC100B35F0060078
:10409000E7D1022D36D0042D1CD0062D1CBFBDEC5F
:1040A000028B70BD53EC182B51EC100BFCF772F91E
:1040B00094ED0A1B53EC112BFCF7C5F853EC182BAD
:1040C000FCF768F994ED081B53EC112BFCF7BBF8D7
:1040D00041EC100B53EC182B51EC100BFCF75AF978
:1040E00094ED061B53EC112BFCF7ADF853EC182B99
:1040F000FCF750F994ED040B53EC102BFCF7A3F8EC
:1041000041EC100B53EC182B51EC100BFCF742F95F
:1041100094ED021B53EC112BFCF795F853EC182B84
:10412000FCF738F994ED001B53EC112BFCF78BF8DE
:10413000BDEC028B41EC100B70BD10B553EC102B95
:1041400051EC100BFCF77FF841EC100B10BD10B5D3
:1041500053EC112B51EC100BFCF775F841EC100BE4
:1041600010BD0000000000009FED050B10B553ECE2
:10417000102B51EC100BFCF77FF941EC100B10BD2C
:1041800000000000000000009FED050B10B553EC8F
:10419000102B51EC100BFCF7FDF841EC100B10BD8F
:1041A000000000000000001002E008C8121F08C153
:1041B000002AFAD170477047002001E001C1121FA8
:1041C000002AFBD1704700000149086070470000D9
:1041D0009400002010B541EC100BFFF791FC51EC5E
:1041E000100B10BD82B0CDE9000121F0004001901C
:1041F0009DED000B02B051EC100B704710EE100A51
:10420000F6EE000A074960EE200AA1EB600000EE1E
:10421000100A20EE801AF7EE080A41EE400A20EE5E
:10422000800A7047DF59375F08B5FDF7A9FAFFF735
:1042300095F9FFF71FF917480024016841F40011B0
:1042400001600068224600F40010009021460B2017
:10425000FDF7F4FA0B20FDF7E5FA10480E4901606E
:104260000F49C0E901144FF48041C0E903414461A2
:104270008461C4610462FDF707F8FFF733F9FFF7C3
:1042800001F8FEF77DFF00BFFEF7B4FFFEF7C6FEA4
:10429000FAE700003038024000540040D007002008
:1042A000801A060070B50C46054616468C2125205E
:1042B00000F07AF82946262000F076F844F08001D4
:1042C000272000F071F80A20FCF7ECFD3246214669
:1042D000BDE87040492000F001B80000F8B50C4678
:1042E000094916460A2508700A460123D0210748C5
:1042F0000095FDF745F923463246D0210348009545
:10430000FDF74AF8F8BD00002C000020D00700207F
:1043100000B52DED048B83B041EC190BFCF720FAAE
:1043200041EC180B18EE100A18EE901A8DED008B68
:10433000002818BF0120084320F00040C0F17F6032
:1043400000F1E040C00F14D019EE101A19EE900AD7
:104350008DED009B002918BF0121084320F000408B
:10436000C0F17F6000F1E040C00F04BF0120FFF703
:104370002BFF51EC180B03B0BDEC048B00BD70B5E6
:104380000D4604460C21252000F00EF8214626207B
:1043900000F00AF82946632000F006F8BDE87040F6
:1043A00081212720AFF3008008B5054A0223107051
:1043B00051700A200090D0210248FDF7E1F808BDB5
:1043C0002C000020D0070020000610160006101652
:1043D00000000000000000000102030406070809B5
:1043E0000000000001020304555555555555C53FC1
:1043F0007D6FEB0312D6D4BF5544880E55C1C93F1B
:104400003B8F68B52882A4BF88B20175E0EF493FB1
:1044100009F7FD0DE13D023F4B2D8A1C273A03C0F1
:10442000C88A599CE52A004059018D1B6C06E6BFDD
:1044300082922EB1C5B8B33F4FBB610567ACDD3F7B
:10444000182D4454FB21E93F9BF681D20B73EF3FBB
:10445000182D4454FB21F93FE2652F227F2B7A3C33
:10446000075C143326A6813CBDCBF07A8807703CEC
:10447000075C143326A6913CC4EB98999999C9BF5F
:10448000711623FEC671BCBF6D9A74AFF2B0B3BF94
:104490009AFDDE522DDEADBF2F6C6A2C44B4A2BF54
:1044A0000D5555555555D53FFF8300922449C23FC0
:1044B0006E204CC5CD45B73F513DD0A0660DB13FF4
:1044C000EB0D76244B7BA93F11DA22E33AAD903F06
:1044D0000000000000000000F84400080000002078
:1044E00098000000A84100089045000898000020AE
:1044F000280C0000B8410008000000000000000087
:1045000000000000000000000000000000000000AB
:10451000000000000000000000000000000000009B
:10452000000000000000000000000000000000008B
:10453000000000000000000000000000000000007B
:10454000000000000000000000000000000000006B
:104550000000000000000000000000000000803F9C
:104560006F12034300000000000000000000000084
:10457000000000000000000000000000010000003A
:1045800010000000000000000024F4000000000003
:040000050800018965
:00000001FF
